AERONOVA
14038721102013   36904 1510201333068883000201SOCIEDADE COML.IMPORT.HERMES S/A*  AV BRASIL 44228                    CAMPO GRANRIO DE JANEIRO                     RJ82367179          2307800109453004766   ELIETE DA PENHA                    TV STA INES 70 CASA                PERPETUO SColatina                           ESISENTO            2970144544960951  000000071982056000000002C000000044077                                                            00000000008033        
14038721102013   36911 1510201333068883000201SOCIEDADE COML.IMPORT.HERMES S/A*  AV BRASIL 44228                    CAMPO GRANRIO DE JANEIRO                     RJ82367179          2307800106966526762   LUCIANA REGINA DE PAULA            RUA GUARACY 168                    MARGARETH Nova Venecia                       ESISENTO            2983000045022038  000000044990019000000001C000000015402                                                            00000000002812        
14038721102013   36912 1510201333068883000201SOCIEDADE COML.IMPORT.HERMES S/A*  AV BRASIL 44228                    CAMPO GRANRIO DE JANEIRO                     RJ82367179          2307800109602572760   EDUARDO CESTARO COVRE              R FORTUNATO A GAGNO 112            JARDIM CAMVitoria                            ESISENTO            2909020045022041  000000079990031000000001C000000018002                                                            00000000003192        
14038721102013   36917 1510201333068883000201SOCIEDADE COML.IMPORT.HERMES S/A*  AV BRASIL 44228                    CAMPO GRANRIO DE JANEIRO                     RJ82367179          2307800109280494775   LUCIANA ARAUJO                     R LAGOA MIRIM 1                    COQUEIRAL Aracruz                            ESISENTO            2919918245030118  000000021099002640000001C000000005290                                                            00000000000948        
14038721102013   36920 1510201333068883000201SOCIEDADE COML.IMPORT.HERMES S/A*  AV BRASIL 44228                    CAMPO GRANRIO DE JANEIRO                     RJ82367179          2307800109230042706   LUCIANO MENDES COLNAGO             R PINHO 125 2 205                  COLINA DE Serra                              ESISENTO            2916714245030733  000000126702033000000002C000000019228                                                            00000000003425        
14038721102013   36922 1510201333068883000201SOCIEDADE COML.IMPORT.HERMES S/A*  AV BRASIL 44228                    CAMPO GRANRIO DE JANEIRO                     RJ82367179          2307800107656643729   DAVID FIDALGO DE QUEIROZ           R S PAULO 1754 APT 801             PRAIA DA CVila Velha                         ESISENTO            2910130045037894  000000121491006500000001C000000005168                                                            00000000000925        
14038721102013   36924 1510201333068883000201SOCIEDADE COML.IMPORT.HERMES S/A*  AV BRASIL 44228                    CAMPO GRANRIO DE JANEIRO                     RJ82367179          2307800109421987780   ADELSON AUTO DE JESUS              RUA LUCILO BAIOCO 52 CASA          SANTA LUZIJoao Neiva                         ESISENTO            2968000045039990  000000333962024050000004C000000020157                                                            00000000003659        
14038721102013   36927 1510201333068883000201SOCIEDADE COML.IMPORT.HERMES S/A*  AV BRASIL 44228                    CAMPO GRANRIO DE JANEIRO                     RJ82367179          2307800108050190000163JONES CARLOS PASSOS ME             AV 09 DE AGOSTO 1695 LOJA          CENTRO    Jaguare                            ESISENTO            2995000045046441  000000007188001000000001C000000005256                                                            00000000000942        
14038721102013   36929 1510201333068883000201SOCIEDADE COML.IMPORT.HERMES S/A*  AV BRASIL 44228                    CAMPO GRANRIO DE JANEIRO                     RJ82367179          2307800107658263729   NILMA SARNAGLIA QUEIROZ            R FABIO RUSCH 175 CASA             IBES      Vila Velha                         ESISENTO            2910854045048168  000000169990002500000001C000000004856                                                            00000000000866        
14038721102013   36935 1510201333068883000201SOCIEDADE COML.IMPORT.HERMES S/A*  AV BRASIL 44228                    CAMPO GRANRIO DE JANEIRO                     RJ82367179          2307800108363800708   SANDRELI BARCELLOS CARRICO         R DAS GARCAS 837 CASA              RESIDENCIALinhares                           ESISENTO            2990565345052959  000000023912006250000001C000000007149                                                            00000000001301        
14038721102013   36937 1510201333068883000201SOCIEDADE COML.IMPORT.HERMES S/A*  AV BRASIL 44228                    CAMPO GRANRIO DE JANEIRO                     RJ82367179          2307800105538275701   DENNIS CAZELI FERREIRA             RUA JOAQUIM DE SOUZA 14            CASTELO BRCARIACICA                          ESISENTO            2914074245055782  000000009975004500000001C000000004707                                                            00000000000837        
14038721102013   36938 1510201333068883000201SOCIEDADE COML.IMPORT.HERMES S/A*  AV BRASIL 44228                    CAMPO GRANRIO DE JANEIRO                     RJ82367179          2307800108287492726   CARLA CARNEIRO DE ARAUJO           AV VSC DO RIO BRANCO,51/404 BL A   CENTRO    NITEROI                            RJ                  0828749245055784  000000129990022000000001C000000018135                                                            00000000003275        
14038721102013   36944 1510201333068883000201SOCIEDADE COML.IMPORT.HERMES S/A*  AV BRASIL 44228                    CAMPO GRANRIO DE JANEIRO                     RJ82367179          2307800108764858758   LUCIMAR GONCALVES                  RUA SAO LUCAS 23                   UNIVERSAL Viana                              ESISENTO            2913441845060115  000000179990007500000001C000000005683                                                            00000000001023        
14038721102013   36949 1510201333068883000201SOCIEDADE COML.IMPORT.HERMES S/A*  AV BRASIL 44228                    CAMPO GRANRIO DE JANEIRO                     RJ82367179          2307800108152073792   CRISTIANE RITA DE ANDRADE          R CANNES ED JOIA DO ATLANTICO 296 APRAIA DO MGuarapari                          ESISENTO            2921620045080019  000000159990002500000001C000000005633                                                            00000000001013        
14038721102013   36952 1510201333068883000201SOCIEDADE COML.IMPORT.HERMES S/A*  AV BRASIL 44228                    CAMPO GRANRIO DE JANEIRO                     RJ82367179          2307800107188437700   SIMONE NASCIMENTO SILVA            AV CENTRAL COND RECANTO DA SERRA 12COLINA DE Serra                              ESISENTO            2916711445080976  000000024950003500000001C000000004744                                                            00000000000844        
14038721102013   36954 1510201333068883000201SOCIEDADE COML.IMPORT.HERMES S/A*  AV BRASIL 44228                    CAMPO GRANRIO DE JANEIRO                     RJ82367179          2307800108006691770   ROSIANE DELARMELINA                R BOLIVIA 107                      JARDIM AMECARIACICA                          ESISENTO            2914023045086369  000000071991009750000001C000000005416                                                            00000000000972        
14038721102013   36955 1510201333068883000201SOCIEDADE COML.IMPORT.HERMES S/A*  AV BRASIL 44228                    CAMPO GRANRIO DE JANEIRO                     RJ82367179          2307800105790454712   HUDSON SALVADOR KRUGER             AV ESPIRITO SANTO 37 CASA          JARDIM AMECARIACICA                          ESISENTO            2914008045086370  000000087991002250000001C000000004653                                                            00000000000827        
14038721102013   37011 1510201333068883000201SOCIEDADE COML.IMPORT.HERMES S/A*  AV BRASIL 44228                    CAMPO GRANRIO DE JANEIRO                     RJ82367179          2307800109198471708   CINTIA BAZONI SOARES               PC JOSE NUNES 01 CANTO FELI        VARGEM GRAVargem Grande do Soturno (CachoeiroESISENTO            2932100045039995  000000025990005000000001C000000005920                                                            00000000001068        
14038721102013   36905 1510201333068883000201SOCIEDADE COML.IMPORT.HERMES S/A*  AV BRASIL 44228                    CAMPO GRANRIO DE JANEIRO                     RJ82367179          2307800140026825791   VALDIR FERNANDO ROMEU DA SILVA     RUA CEDROLANDIA JARDIM DO VALE 1250JARDIM DO Vila Velha                         ESISENTO            2911375744982711  000000011990000051000001C000000004465                                                            00000000000791        
14038721102013   36906 1510201333068883000201SOCIEDADE COML.IMPORT.HERMES S/A*  AV BRASIL 44228                    CAMPO GRANRIO DE JANEIRO                     RJ82367179          2307800182180075715   ROSANIA BORGES BARBOSA             R JOAO G DE MELLO 810 CASA         DAS LARANJSerra                              ESISENTO            2917558444983757  000000114391069250000001C000000040238                                                            00000000007246        
14038721102013   36907 1510201333068883000201SOCIEDADE COML.IMPORT.HERMES S/A*  AV BRASIL 44228                    CAMPO GRANRIO DE JANEIRO                     RJ82367179          2307800168707460791   SERGIO LUIZ RANGEL MATOS           R DOMINGOS MARTINS 10 CASA         GLORIA    Vila Velha                         ESISENTO            2912208045014974  000000038990011500000001C000000006468                                                            00000000001115        
14038721102013   36908 1510201333068883000201SOCIEDADE COML.IMPORT.HERMES S/A*  AV BRASIL 44228                    CAMPO GRANRIO DE JANEIRO                     RJ82367179          2307800110798042770   PRISCILA FERNANDES DE OLIVEIRA     RUA MANOEL BELCHIOR 47 CASA        CENTRO    Alto Rio Novo                      ESISENTO            2976000045017263  000000067992015500000001C000000012867                                                            00000000002331        
14038721102013   36913 1510201333068883000201SOCIEDADE COML.IMPORT.HERMES S/A*  AV BRASIL 44228                    CAMPO GRANRIO DE JANEIRO                     RJ82367179          2307800111881988740   DANIEL GOMES MARTINS SILVA         R S JOAO 36 CASA                   ANDRE CARLSerra                              ESISENTO            2916182545019469  000000076873018694000003C000000010558                                                            00000000001892        
14038721102013   36910 1510201333068883000201SOCIEDADE COML.IMPORT.HERMES S/A*  AV BRASIL 44228                    CAMPO GRANRIO DE JANEIRO                     RJ82367179          2307800112476616796   GLASSIELE CALDEIRA DE SOUZA        R CEARA 60 CASA                    SANTO ANTOCARIACICA                          ESISENTO            2915682245021089  000000029990004320000001C000000004757                                                            00000000000847        
14038721102013   36916 1510201333068883000201SOCIEDADE COML.IMPORT.HERMES S/A*  AV BRASIL 44228                    CAMPO GRANRIO DE JANEIRO                     RJ82367179          2307800138687542020   ROGERIO LIMA DE CAMPOS             R VINICIUS TORRES 478 AP 301       PRAIA DA CVila Velha                         ESISENTO            2910110545027694  000000214990010750000001C000000006486                                                            00000000001118        
14038721102013   36919 1510201333068883000201SOCIEDADE COML.IMPORT.HERMES S/A*  AV BRASIL 44228                    CAMPO GRANRIO DE JANEIRO                     RJ82367179          2307800112322292702   PRISCILA FIOROT CARETA             NORIVAL CARVALHO DOS ANJOS 82      ESPLANADA Castelo                            ESISENTO            2936000045030732  000000087991015500000001C000000012916                                                            00000000002340        
14038721102013   36921 1510201333068883000201SOCIEDADE COML.IMPORT.HERMES S/A*  AV BRASIL 44228                    CAMPO GRANRIO DE JANEIRO                     RJ82367179          2307800120190557753   AUREO LUCIO MELO ZANON             R S SALVADOR 9                     SAO JUDAS Guarapari                          ESISENTO            2920058045035936  000000028490002750000001C000000005309                                                            00000000000952        
14038721102013   36923 1510201333068883000201SOCIEDADE COML.IMPORT.HERMES S/A*  AV BRASIL 44228                    CAMPO GRANRIO DE JANEIRO                     RJ82367179          2307800177329481734   LADIMILSON SENA DA SILVA           AV ERNESTO CANAL 614               ALVORADA  Vila Velha                         ESISENTO            2911712045038281  000000134991039000000003C000000022583                                                            00000000004063        
14038721102013   36925 1510201333068883000201SOCIEDADE COML.IMPORT.HERMES S/A*  AV BRASIL 44228                    CAMPO GRANRIO DE JANEIRO                     RJ82367179          2307800111171452713   GLEISSON CASSANDRO MONTEIRO        RUA NACIF ALCURE SOBRINHO 280 CASA CENTRO    Ibatiba                            ESISENTO            2939500045040365  000000042799002500000002C000000005344                                                            00000000000958        
14038721102013   36931 1510201333068883000201SOCIEDADE COML.IMPORT.HERMES S/A*  AV BRASIL 44228                    CAMPO GRANRIO DE JANEIRO                     RJ82367179          2307800109884927766   JOANICE MARIA CALDOGNO             AV INDEPENDENCIA 171 CASA          MORADA DA Vila Velha                         ESISENTO            2912657845048816  000000029990005600000001C000000004942                                                            00000000000882        
14038721102013   36932 1510201333068883000201SOCIEDADE COML.IMPORT.HERMES S/A*  AV BRASIL 44228                    CAMPO GRANRIO DE JANEIRO                     RJ82367179          2307800109644151780   FABIO ROCHA DA SILVA               AV ANTONIO PERUTTI 8               HONORIO FRColatina                           ESISENTO            2970467045052956  000000075036010750000001C000000009365                                                            00000000001665        
14038721102013   36934 1510201333068883000201SOCIEDADE COML.IMPORT.HERMES S/A*  AV BRASIL 44228                    CAMPO GRANRIO DE JANEIRO                     RJ82367179          2307800109921657763   FABRICIO TORRI                     AV ROMULO DE OLIVEIRA 26 CASA      CENTRO    Joao Neiva                         ESISENTO            2968000045052958  000000023912006250000001C000000007149                                                            00000000001301        
14038721102013   36939 1510201333068883000201SOCIEDADE COML.IMPORT.HERMES S/A*  AV BRASIL 44228                    CAMPO GRANRIO DE JANEIRO                     RJ82367179          2307800113326859783   SIDNEI BATISTA                     RUA JACKSOM MENDOCA 12             SANTO ANTOPinheiros                          ESISENTO            2998000045057426  000000049990003500000001C000000005979                                                            00000000001079        
14038721102013   36940 1510201333068883000201SOCIEDADE COML.IMPORT.HERMES S/A*  AV BRASIL 44228                    CAMPO GRANRIO DE JANEIRO                     RJ82367179          2307800118720235000113IGREJA BATISTA GETSEMANI           R PABLO PICASSO 70 IGREJA          PARQUE RESSerra                              ESISENTO            2916553045058963  000000079990012750000001C000000007264                                                            00000000001266        
14038721102013   36942 1510201333068883000201SOCIEDADE COML.IMPORT.HERMES S/A*  AV BRASIL 44228                    CAMPO GRANRIO DE JANEIRO                     RJ82367179          2307800167413803704   DEOLINDO DA SILVA BOURGUIGNON      AV ESTUDANTE JOSE J DE SOUZA 1730 APRAIA DE IVila Velha                         ESISENTO            2910201045059359  000000114990002250000001C000000004720                                                            00000000000840        
14038721102013   36945 1510201333068883000201SOCIEDADE COML.IMPORT.HERMES S/A*  AV BRASIL 44228                    CAMPO GRANRIO DE JANEIRO                     RJ82367179          2307800176030636715   AGLIBERTO BALIANO CARETA           RUA MANOEL STOFELL 145 CASA        CENTRO    Castelo                            ESISENTO            2936000045061472  000000159990002500000001C000000005633                                                            00000000001013        
14038721102013   36947 1510201333068883000201SOCIEDADE COML.IMPORT.HERMES S/A*  AV BRASIL 44228                    CAMPO GRANRIO DE JANEIRO                     RJ82367179          2307800148898074700   SERGIO FERREIRA                    R PITANGAS 5 CASA                  ILHA DOS BVila Velha                         ESISENTO            2910434045061476  000000097741002250000001C000000004677                                                            00000000000832        
14038721102013   36953 1510201333068883000201SOCIEDADE COML.IMPORT.HERMES S/A*  AV BRASIL 44228                    CAMPO GRANRIO DE JANEIRO                     RJ82367179          2307800172140682734   PAULO ROBERTO PATERLINI            AV GETULIO VARGAS 892 LOJA 03      CENTRO    Alfredo Chaves                     ESISENTO            2924000045086368  000000067991003750000001C000000006023                                                            00000000001087        
14038721102013   36956 1510201333068883000201SOCIEDADE COML.IMPORT.HERMES S/A*  AV BRASIL 44228                    CAMPO GRANRIO DE JANEIRO                     RJ82367179          2307800197024708549   CLAUDEMAR DO PRADO NOGUEIRA        R S GERALDO 13                     RIO MARINHVila Velha                         ESISENTO            2911259045086371  000000179990007500000001C000000005683                                                            00000000001023        
14038721102013   36909 1510201333068883000201SOCIEDADE COML.IMPORT.HERMES S/A*  AV BRASIL 44228                    CAMPO GRANRIO DE JANEIRO                     RJ82367179          2307800102467776727   MELISSA FONSECA ANDRADE            R WALDOMIRO A PEREIRA 55 APTO 902  MATA DA PRVitoria                            ESISENTO            2906629045019472  000000015990002500000001C000000004475                                                            00000000000793        
14038721102013   36914 1510201333068883000201SOCIEDADE COML.IMPORT.HERMES S/A*  AV BRASIL 44228                    CAMPO GRANRIO DE JANEIRO                     RJ82367179          2307800103257346581   FRANCIELLE DE JESUS SILVA          R VINTE E CINCO 123 APT 03         SANTA MONIVila Velha                         ESISENTO            2910545045024486  000000039990028000000001C000000015937                                                            00000000002857        
14038721102013   36915 1510201333068883000201SOCIEDADE COML.IMPORT.HERMES S/A*  AV BRASIL 44228                    CAMPO GRANRIO DE JANEIRO                     RJ82367179          2307800105533191755   RENATA WANTIL DE SOUZA SANTOS      R ANTONIO EUCLIDES DOS SANTOS 21 CASOTEMA    CARIACICA                          ESISENTO            2915216045027691  000000099990013719000001C000000007852                                                            00000000001378        
14038721102013   36928 1510201333068883000201SOCIEDADE COML.IMPORT.HERMES S/A*  AV BRASIL 44228                    CAMPO GRANRIO DE JANEIRO                     RJ82367179          2307800105483931769   LIDIANE SILVA ALVES                RUA IRMAOS BARONI 16 QUADRA 59     SAO JOSE  Linhares                           ESISENTO            2990513045048165  000000029990003000000001C000000005312                                                            00000000000952        
14038721102013   36943 1510201333068883000201SOCIEDADE COML.IMPORT.HERMES S/A*  AV BRASIL 44228                    CAMPO GRANRIO DE JANEIRO                     RJ82367179          2307800105430572756   DOUGLAS FERREIRA RODRIGUES         R PRFA CORNELIA L DE FARIAS 105    MARIA ORTIVitoria                            ESISENTO            2907068045059476  000000032590004750000001C000000004763                                                            00000000000848        
14038721102013   36950 1510201333068883000201SOCIEDADE COML.IMPORT.HERMES S/A*  AV BRASIL 44228                    CAMPO GRANRIO DE JANEIRO                     RJ82367179          2307800103192754770   SILVANIO GONCALVES DOS SANTOS      R BOA VISTA 065                    GRANDE VITVitoria                            ESISENTO            2903132545080623  000000026627003500000001C000000004748                                                            00000000000845        
14038721102013   36951 1510201333068883000201SOCIEDADE COML.IMPORT.HERMES S/A*  AV BRASIL 44228                    CAMPO GRANRIO DE JANEIRO                     RJ82367179          2307800103117406778   ALICE HELENA BARROSO SARCINELLI    RUA JERONIMO CARLESSO 91 B         CENTRO    Joao Neiva                         ESISENTO            2968000045080973  000000075036010750000001C000000009365                                                            00000000001665        
14038721102013   36926 1510201333068883000201SOCIEDADE COML.IMPORT.HERMES S/A*  AV BRASIL 44228                    CAMPO GRANRIO DE JANEIRO                     RJ82367179          2307800101699947759   RUBENS MAIOLI ZANI                 ROD DO SOL S N BAR ZANI            AEROPORTO Guarapari                          ESISENTO            2921670545041264  000000129990015750000001C000000013205                                                            00000000002395        
14038721102013   36930 1510201333068883000201SOCIEDADE COML.IMPORT.HERMES S/A*  AV BRASIL 44228                    CAMPO GRANRIO DE JANEIRO                     RJ82367179          2307800101484553950   JEAN CARLOS DE OLIVEIRA            R JOSE MARCELINO 95 APTO 201       CENTRO    Vitoria                            ESISENTO            2901512045048171  000000012990002150000001C000000004468                                                            00000000000792        
14038721102013   36936 1510201333068883000201SOCIEDADE COML.IMPORT.HERMES S/A*  AV BRASIL 44228                    CAMPO GRANRIO DE JANEIRO                     RJ82367179          2307800101526503778   ANA LUCIA CASAGRANDE               R ELMO RIBEIRO DO VAL 165 CS       SAO MIGUELCastelo                            ESISENTO            2936000045054695  000000005421000250000001C000000005252                                                            00000000000941        
14038721102013   36941 1510201333068883000201SOCIEDADE COML.IMPORT.HERMES S/A*  AV BRASIL 44228                    CAMPO GRANRIO DE JANEIRO                     RJ82367179          2307800102400925704   MARIA DA PENHA DOS SANTOS          TRAVESSA MARIA GUIDI 06            SANTO AGUSAgua Doce do Norte                 ESISENTO            2982000045059209  000000071991003750000001C000000006033                                                            00000000001089        
14038721102013   36946 1510201333068883000201SOCIEDADE COML.IMPORT.HERMES S/A*  AV BRASIL 44228                    CAMPO GRANRIO DE JANEIRO                     RJ82367179          2307800102009860748   EDIMAR LAGASSE                     R MARIANO S RAMOS 48 ANTIGO PA     BOA VISTA Serra                              ESISENTO            2916100545061475  000000029691005000000001C000000004756                                                            00000000000847        
14038721102013   36918 1510201333068883000201SOCIEDADE COML.IMPORT.HERMES S/A*  AV BRASIL 44228                    CAMPO GRANRIO DE JANEIRO                     RJ82367179          2307800100970039727   ODINEA SALLEA DUARTE               R TIMBAUBA 132                     BARCELONA Serra                              ESISENTO            2916602945030119  000000089990034500000001C000000019972                                                            00000000003567        
14038721102013   36933 1510201333068883000201SOCIEDADE COML.IMPORT.HERMES S/A*  AV BRASIL 44228                    CAMPO GRANRIO DE JANEIRO                     RJ82367179          2307800100787226750   EDIVALDO AMARAL BARBALHO           RUA RUI CORTES 328 CS              CENTRO    Ecoporanga                         ESISENTO            2985000045052957  000000011956003250000001C000000005885                                                            00000000001061        
14038721102013   36948 1510201333068883000201SOCIEDADE COML.IMPORT.HERMES S/A*  AV BRASIL 44228                    CAMPO GRANRIO DE JANEIRO                     RJ82367179          2307800100794227724   EUZENAI SILVA PINTO                AV HANS SCHMOGER 617 RESIDENCIA    NOSSA SENHLinhares                           ESISENTO            2990049545064924  000000035990002592000001C000000005327                                                            00000000000955        
14038721102013   37791 1610201333068883000201SOCIEDADE COML.IMPORT.HERMES S/A*  AV BRASIL 44228                    CAMPO GRANRIO DE JANEIRO                     RJ82367179          2307800100787226750   EDIVALDO AMARAL BARBALHO           RUA RUI CORTES 328 CS              CENTRO    Ecoporanga                         ESISENTO            2985000045058129  000000023912006250000001C000000007149                                                            00000000001301        
14038721102013   37793 1610201333068883000201SOCIEDADE COML.IMPORT.HERMES S/A*  AV BRASIL 44228                    CAMPO GRANRIO DE JANEIRO                     RJ82367179          2307800100131728750   MARCOS AURELIO DE OLIVEIRA         AV TRES DEZ                        PARQUE RESCARIACICA                          ESISENTO            2914285645061470  000000011968000500000001C000000004465                                                            00000000000791        
14038721102013   37796 1610201333068883000201SOCIEDADE COML.IMPORT.HERMES S/A*  AV BRASIL 44228                    CAMPO GRANRIO DE JANEIRO                     RJ82367179          2307800100267204507   GEORGIA GONCALVES                  R FRANCISCO D RAMOS 100 AP 204     PRAIA DAS Vila Velha                         ESISENTO            2910258145062252  000000019990010250000001C000000005727                                                            00000000000974        
14038721102013   37786 1610201333068883000201SOCIEDADE COML.IMPORT.HERMES S/A*  AV BRASIL 44228                    CAMPO GRANRIO DE JANEIRO                     RJ82367179          2307800102467204766   ADELMO                             R DR JAIR ANDRADE 1311             ITAPUA    Vila Velha                         ESISENTO            2910170345052076  000000079990003750000001C000000004880                                                            00000000000870        
14038721102013   37787 1610201333068883000201SOCIEDADE COML.IMPORT.HERMES S/A*  AV BRASIL 44228                    CAMPO GRANRIO DE JANEIRO                     RJ82367179          2307800101526503778   ANA LUCIA CASAGRANDE               R ELMO RIBEIRO DO VAL 165 CS       SAO MIGUELCastelo                            ESISENTO            2936000045054694  000000034569002750000001C000000005323                                                            00000000000954        
14038721102013   37798 1610201333068883000201SOCIEDADE COML.IMPORT.HERMES S/A*  AV BRASIL 44228                    CAMPO GRANRIO DE JANEIRO                     RJ82367179          2307800101699955778   ELISABETE SABADIM                  AVPRESIDENTE COSTA E SILVA 05 CASA NOVO HORIZLinhares                           ESISENTO            2990212045064923  000000044993003194000001C000000005967                                                            00000000001077        
14038721102013   37574 1610201333068883000201SOCIEDADE COML.IMPORT.HERMES S/A*  AV BRASIL 44228                    CAMPO GRANRIO DE JANEIRO                     RJ82367179          2307800103886405613   MARIA DA GLORIA SOUZA SOBRINHO     AV SEBASTIAO RABELO 348 LOJA       CENTRO    Ponto Belo                         ESISENTO            2988500045117073  000000029383002750000001C000000005311                                                            00000000000952        
14038721102013   37766 1610201333068883000201SOCIEDADE COML.IMPORT.HERMES S/A*  AV BRASIL 44228                    CAMPO GRANRIO DE JANEIRO                     RJ82367179          2307800103584043719   ROBSON JOSE MORAES                 RUA MANOEL COUTINHO 242            PORTO DE SCARIACICA                          ESISENTO            2915302045019464  000000024980003260000002C000000004744                                                            00000000000844        
14038721102013   37774 1610201333068883000201SOCIEDADE COML.IMPORT.HERMES S/A*  AV BRASIL 44228                    CAMPO GRANRIO DE JANEIRO                     RJ82367179          2307800103117083740   VANDERLETE CASAROTO ROSA           CORREGO BARATINHA SN ZONA RURAL    ZONA RURALSao Domingos do Norte              ESISENTO            2974500045030988  000000150072021750000001C000000017999                                                            00000000003249        
14038721102013   37785 1610201333068883000201SOCIEDADE COML.IMPORT.HERMES S/A*  AV BRASIL 44228                    CAMPO GRANRIO DE JANEIRO                     RJ82367179          2307800105219730746   LUCIANO SOARES DE OLIVEIRA         RUA MARIA ELEONORA PEREIRA 120 APT JARDIM DA Vitoria                            ESISENTO            2906018045048818  000000009990001800000001C000000004460                                                            00000000000790        
14038721102013   37800 1610201333068883000201SOCIEDADE COML.IMPORT.HERMES S/A*  AV BRASIL 44228                    CAMPO GRANRIO DE JANEIRO                     RJ82367179          2307800103493968760   JOSE AUGUSTO DE AZEVEDO CAPRA      AV PREF SAMUEL B CRUZ 3359 MOTOL VENOSSA SENHLinhares                           ESISENTO            2990052745080974  000000023912006250000001C000000007149                                                            00000000001301        
14038721102013   37804 1610201333068883000201SOCIEDADE COML.IMPORT.HERMES S/A*  AV BRASIL 44228                    CAMPO GRANRIO DE JANEIRO                     RJ82367179          2307800103469066795   ANA CLAUDIA BITTE DOS S CASTRO     RUA 26 11 Q52 CP52                 UBU       Anchieta                           ESISENTO            2923000045089605  000000012990003250000001C000000005888                                                            00000000001062        
14038721102013   37862 1610201333068883000201SOCIEDADE COML.IMPORT.HERMES S/A*  AV BRASIL 44228                    CAMPO GRANRIO DE JANEIRO                     RJ82367179          2307800103112905741   LUCINETE CHAGAS                    R ELISIO MIRANDA 90 CASA           NOSSA SENHSerra                              ESISENTO            2917653145101565  000000069990004750000001C000000004856                                                            00000000000866        
14038721102013   37560 1610201333068883000201SOCIEDADE COML.IMPORT.HERMES S/A*  AV BRASIL 44228                    CAMPO GRANRIO DE JANEIRO                     RJ82367179          2307800117367794787   FRANCISCO CORREA DOS REIS          R D PEDRO II 1805                  CRUZEIRO DCARIACICA                          ESISENTO            2914408045101559  000000107065017000000001C000000009691                                                            00000000001727        
14038721102013   37579 1610201333068883000201SOCIEDADE COML.IMPORT.HERMES S/A*  AV BRASIL 44228                    CAMPO GRANRIO DE JANEIRO                     RJ82367179          2307800110450294757   MILENA MOREIRA ROHR                R SERTORIO FRANCO 107              ANTONIO HOVitoria                            ESISENTO            2907083545118011  000000044191003500000001C000000004791                                                            00000000000853        
14038721102013   37582 1610201333068883000201SOCIEDADE COML.IMPORT.HERMES S/A*  AV BRASIL 44228                    CAMPO GRANRIO DE JANEIRO                     RJ82367179          2307800182677328704   MARIA DE LOURDES CALIARI           R TOCANTINS 1001 PREDIO AMA        SOTECO    Vila Velha                         ESISENTO            2910612045118347  000000029362002750000001C000000004509                                                            00000000000800        
14038721102013   37606 1610201333068883000201SOCIEDADE COML.IMPORT.HERMES S/A*  AV BRASIL 44228                    CAMPO GRANRIO DE JANEIRO                     RJ82367179          2307800163159139700   RUTELEIA FILGUEIRA PIRES           R CASTELO BRANCO 18 CASA           ITAICI    Itaici (Muniz Freire)              ESISENTO            2938800045117900  000000025491003250000001C000000005919                                                            00000000001068        
14038721102013   37764 1610201333068883000201SOCIEDADE COML.IMPORT.HERMES S/A*  AV BRASIL 44228                    CAMPO GRANRIO DE JANEIRO                     RJ82367179          2307800148872610710   HUGO SASSEMBURG LEITE              AV ANTONIO T DE ALMEIDA 535        BUBU      CARIACICA                          ESISENTO            2915779545017691  000000225084032500000001C000000019194                                                            00000000003419        
14038721102013   37765 1610201333068883000201SOCIEDADE COML.IMPORT.HERMES S/A*  AV BRASIL 44228                    CAMPO GRANRIO DE JANEIRO                     RJ82367179          2307800186271369715   JOAO MININI                        AV JERONIMO MONTEIRO 2421 BAR      ARIBIRI   Vila Velha                         ESISENTO            2912000245017692  000000075048010750000001C000000006141                                                            00000000001053        
14038721102013   37767 1610201333068883000201SOCIEDADE COML.IMPORT.HERMES S/A*  AV BRASIL 44228                    CAMPO GRANRIO DE JANEIRO                     RJ82367179          2307800111881988740   DANIEL GOMES MARTINS SILVA         R S JOAO 36 CASA                   ANDRE CARLSerra                              ESISENTO            2916182545019468  000000048081005004000002C000000004986                                                            00000000000890        
14038721102013   37768 1610201333068883000201SOCIEDADE COML.IMPORT.HERMES S/A*  AV BRASIL 44228                    CAMPO GRANRIO DE JANEIRO                     RJ82367179          2307800182043248715   ADRIANA SILVERIO                   RUA SAO JOAO DEL REY 18 QUADRA 15  MARCILIO DViana                              ESISENTO            2913554545024482  000000089980038000000002C000000021916                                                            00000000003936        
14038721102013   37770 1610201333068883000201SOCIEDADE COML.IMPORT.HERMES S/A*  AV BRASIL 44228                    CAMPO GRANRIO DE JANEIRO                     RJ82367179          2307800124833216825   FATIMA SANTOS DE AZEVEDO REBOU     RUA PIO FAVARO 189 CASA            VILA NOVA Pinheiros                          ESISENTO            2998000045026332  000000003765001000000001C000000005248                                                            00000000000940        
14038721102013   37772 1610201333068883000201SOCIEDADE COML.IMPORT.HERMES S/A*  AV BRASIL 44228                    CAMPO GRANRIO DE JANEIRO                     RJ82367179          2307800138687542020   ROGERIO LIMA DE CAMPOS             R VINICIUS TORRES 478 AP 301       PRAIA DA CVila Velha                         ESISENTO            2910110545027695  000000006186000936000001C000000004451                                                            00000000000789        
14038721102013   37773 1610201333068883000201SOCIEDADE COML.IMPORT.HERMES S/A*  AV BRASIL 44228                    CAMPO GRANRIO DE JANEIRO                     RJ82367179          2307800152670279791   CAROLINA GOMES DOS SANTOS          R JARDIM MIRIM 259 CASA            COBILANDIAVila Velha                         ESISENTO            2911123045030121  000000029990001250000001C000000004510                                                            00000000000800        
14038721102013   37775 1610201333068883000201SOCIEDADE COML.IMPORT.HERMES S/A*  AV BRASIL 44228                    CAMPO GRANRIO DE JANEIRO                     RJ82367179          2307800179121535787   CLAUDIA SUELI DUARTE LIMA          R LISANDRO NICOLETTI 387           JUCUTUQUARVitoria                            ESISENTO            2904215045033686  000000199990002500000001C000000004930                                                            00000000000880        
14038721102013   37777 1610201333068883000201SOCIEDADE COML.IMPORT.HERMES S/A*  AV BRASIL 44228                    CAMPO GRANRIO DE JANEIRO                     RJ82367179          2307800111171452713   GLEISSON CASSANDRO MONTEIRO        RUA NACIF ALCURE SOBRINHO 280 CASA CENTRO    Ibatiba                            ESISENTO            2939500045040363  000000140355024250000002C000000019827                                                            00000000003596        
14038721102013   37778 1610201333068883000201SOCIEDADE COML.IMPORT.HERMES S/A*  AV BRASIL 44228                    CAMPO GRANRIO DE JANEIRO                     RJ82367179          2307800168229585768   AILTON DO ROSARIO                  AV ROMULO DE OLIVEIRA 193          FLORESTA  Joao Neiva                         ESISENTO            2968000045040367  000000075036010750000001C000000009365                                                            00000000001665        
14038721102013   37780 1610201333068883000201SOCIEDADE COML.IMPORT.HERMES S/A*  AV BRASIL 44228                    CAMPO GRANRIO DE JANEIRO                     RJ82367179          2307800147895888749   ELIZIER BRUM PEREIRA               R ITALINA P SILVERIO 01            RUI PINTO Cachoeiro de Itapemirim            ESISENTO            2931578045041479  000000019990002640000001C000000005288                                                            00000000000948        
14038721102013   37781 1610201333068883000201SOCIEDADE COML.IMPORT.HERMES S/A*  AV BRASIL 44228                    CAMPO GRANRIO DE JANEIRO                     RJ82367179          2307800190376099704   DANIEL PIMENTA                     AV GUERINO GIUBERT 511 BAR         NOSSA SENHLinhares                           ESISENTO            2990053745041789  000000091032014500000002C000000012183                                                            00000000002201        
14038721102013   37790 1610201333068883000201SOCIEDADE COML.IMPORT.HERMES S/A*  AV BRASIL 44228                    CAMPO GRANRIO DE JANEIRO                     RJ82367179          2307800194874174787   EDMA CARLESSO                      AV GABRIEL PANDOLFI 276 CASA       GUARANA   Aracruz                            ESISENTO            2919540945058128  000000027992008250000001C000000008394                                                            00000000001538        
14038721102013   37792 1610201333068883000201SOCIEDADE COML.IMPORT.HERMES S/A*  AV BRASIL 44228                    CAMPO GRANRIO DE JANEIRO                     RJ82367179          2307800184564342720   ALDEMIRO ZANETTI                   RUA CRUZEIRO 16                    NOVA BETHAViana                              ESISENTO            2913820745059226  000000002213000500000001C000000004441                                                            00000000000787        
14038721102013   37794 1610201333068883000201SOCIEDADE COML.IMPORT.HERMES S/A*  AV BRASIL 44228                    CAMPO GRANRIO DE JANEIRO                     RJ82367179          2307800131682502287   ALESSANDRA BARBOSA FRIACA          R WALTER MACHADO 26 CASA           SOTELANDIACARIACICA                          ESISENTO            2914069045061471  000000084991033750000001C000000019543                                                            00000000003485        
14038721102013   37797 1610201333068883000201SOCIEDADE COML.IMPORT.HERMES S/A*  AV BRASIL 44228                    CAMPO GRANRIO DE JANEIRO                     RJ82367179          2307800175097192753   CARLOS AUGUSTO EWALD               R ENG FABIO RUSCHI 133 APTO 603    BENTO FERRVitoria                            ESISENTO            2905067045062253  000000009891000418000001C000000004460                                                            00000000000790        
14038721102013   37799 1610201333068883000201SOCIEDADE COML.IMPORT.HERMES S/A*  AV BRASIL 44228                    CAMPO GRANRIO DE JANEIRO                     RJ82367179          2307800176428460700   MARIANE BIANCARD                   RUA BRASILIA 18 AP 302             ITAPUA    Vila Velha                         ESISENTO            2910173045080242  000000060900010000000001C000000005389                                                            00000000000967        
14038721102013   37801 1610201333068883000201SOCIEDADE COML.IMPORT.HERMES S/A*  AV BRASIL 44228                    CAMPO GRANRIO DE JANEIRO                     RJ82367179          2307800155981283734   LOLY VIEIRA DIAS                   R EMANUEL 34 A 2AND FUND           RESIDENCIAVila Velha                         ESISENTO            2910284345088801  000000023992003500000001C000000004742                                                            00000000000844        
14038721102013   37802 1610201333068883000201SOCIEDADE COML.IMPORT.HERMES S/A*  AV BRASIL 44228                    CAMPO GRANRIO DE JANEIRO                     RJ82367179          2307800147841729715   ELIANETE DA PENHA REISEN           RUA LAURENTINO PROENCA FILHO 736 APJARDIM DA Vitoria                            ESISENTO            2906044045089420  000000035990002592000001C000000004525                                                            00000000000803        
14038721102013   37803 1610201333068883000201SOCIEDADE COML.IMPORT.HERMES S/A*  AV BRASIL 44228                    CAMPO GRANRIO DE JANEIRO                     RJ82367179          2307800188045072768   FABIANA BORBA ALVES                AV DECIMA AVENIDA S N BR BRASIL    COBILANDIAVila Velha                         ESISENTO            2911176045089532  000000062991005500000001C000000005023                                                            00000000000897        
14038721102013   37863 1610201333068883000201SOCIEDADE COML.IMPORT.HERMES S/A*  AV BRASIL 44228                    CAMPO GRANRIO DE JANEIRO                     RJ82367179          2307800112653341700   LORENA PEREIRA DE ALMEIDA          R JOAQUIM BAHIENSE 115 CASA        PAUL      Vila Velha                         ESISENTO            2911517045101566  000000009990001800000001C000000004460                                                            00000000000790        
14038721102013   37872 1610201333068883000201SOCIEDADE COML.IMPORT.HERMES S/A*  AV BRASIL 44228                    CAMPO GRANRIO DE JANEIRO                     RJ82367179          2307800113376226725   JONAELCIO PEREIRA CORREIA          AV NOSSA SENHORA DA PENHA 318 CUECACENTRO    Castelo                            ESISENTO            2936000045117072  000000029990001250000001C000000005312                                                            00000000000952        
14038721102013   37898 1610201333068883000201SOCIEDADE COML.IMPORT.HERMES S/A*  AV BRASIL 44228                    CAMPO GRANRIO DE JANEIRO                     RJ82367179          2307800110558036708   ANA PAULA NASCIMENTO CHRISTO PAL   RODOV LUIS TEODORO MUSSO 416       DE CARLI  Aracruz                            ESISENTO            2919400445125565  000000119990016500000001C000000013736                                                            00000000002496        
14038721102013   37561 1610201333068883000201SOCIEDADE COML.IMPORT.HERMES S/A*  AV BRASIL 44228                    CAMPO GRANRIO DE JANEIRO                     RJ82367179          2307800108526249720   JOAO ANEZIO PIMENTEL               RUA RUI BARBOSA 189                CENTRO    Sao Jose do Calcado                ESISENTO            2947000045101562  000000029362002750000001C000000005311                                                            00000000000952        
14038721102013   37769 1610201333068883000201SOCIEDADE COML.IMPORT.HERMES S/A*  AV BRASIL 44228                    CAMPO GRANRIO DE JANEIRO                     RJ82367179          2307800105848759758   EVERTON BIANCHI ROMANHA            LAGINHA 135 CENTRO                 LAGINHA   Lajinha (Pancas)                   ESISENTO            2975500045024983  000000023912006250000001C000000007149                                                            00000000001301        
14038721102013   37771 1610201333068883000201SOCIEDADE COML.IMPORT.HERMES S/A*  AV BRASIL 44228                    CAMPO GRANRIO DE JANEIRO                     RJ82367179          2307800107658263729   NILMA SARNAGLIA QUEIROZ            R FABIO RUSCH 175 CASA             IBES      Vila Velha                         ESISENTO            2910854045027693  000000093492007750000001C000000005469                                                            00000000000982        
14038721102013   37776 1610201333068883000201SOCIEDADE COML.IMPORT.HERMES S/A*  AV BRASIL 44228                    CAMPO GRANRIO DE JANEIRO                     RJ82367179          2307800109421987780   ADELSON AUTO DE JESUS              RUA LUCILO BAIOCO 52 CASA          SANTA LUZIJoao Neiva                         ESISENTO            2968000045039992  000000079990003750000001C000000006053                                                            00000000001093        
14038721102013   37779 1610201333068883000201SOCIEDADE COML.IMPORT.HERMES S/A*  AV BRASIL 44228                    CAMPO GRANRIO DE JANEIRO                     RJ82367179          2307800108363800708   SANDRELI BARCELLOS CARRICO         R DAS GARCAS 837 CASA              RESIDENCIALinhares                           ESISENTO            2990565345040368  000000011956003250000001C000000005885                                                            00000000001061        
14038721102013   37782 1610201333068883000201SOCIEDADE COML.IMPORT.HERMES S/A*  AV BRASIL 44228                    CAMPO GRANRIO DE JANEIRO                     RJ82367179          2307800109397505700   EDSON CANAL GIRARDI                RUA CANAL 0 PEDRA AZUL             DOMINGOS MArace (Domingos Martins)           ESISENTO            2927800045048164  000000032990002000000001C000000005320                                                            00000000000954        
14038721102013   37783 1610201333068883000201SOCIEDADE COML.IMPORT.HERMES S/A*  AV BRASIL 44228                    CAMPO GRANRIO DE JANEIRO                     RJ82367179          2307800108199799889   GEMA GALGANE AMORIM ANDRADE BONET  R INACIO HIGINO 108 CS4            PRAIA DA CVila Velha                         ESISENTO            2910143045048167  000000125991011250000001C000000006544                                                            00000000001129        
14038721102013   37784 1610201333068883000201SOCIEDADE COML.IMPORT.HERMES S/A*  AV BRASIL 44228                    CAMPO GRANRIO DE JANEIRO                     RJ82367179          2307800109630867745   JOAO RICARDO VALADARES DUARTE COS  R PORTO PRINCIPE 38 CASA           ARACAS    Vila Velha                         ESISENTO            2910319045048817  000000026391003250000001C000000004748                                                            00000000000845        
14038721102013   37788 1610201333068883000201SOCIEDADE COML.IMPORT.HERMES S/A*  AV BRASIL 44228                    CAMPO GRANRIO DE JANEIRO                     RJ82367179          2307800105796516736   LILIAN CAMPOS PEREIRA ROSA         R GUILHERME MEYER 177              SANTA TEREVitoria                            ESISENTO            2902675345054696  000000024960003000000001C000000004498                                                            00000000000798        
14038721102013   37789 1610201333068883000201SOCIEDADE COML.IMPORT.HERMES S/A*  AV BRASIL 44228                    CAMPO GRANRIO DE JANEIRO                     RJ82367179          2307800109356942773   VANESSA POLEZE BARBOSA             AV CEL MANOEL NUNES 51 FUNDOS      JARDIM TROSerra                              ESISENTO            2916201045057918  000000039990005128000001C000000004967                                                            00000000000887        
14038721102013   37795 1610201333068883000201SOCIEDADE COML.IMPORT.HERMES S/A*  AV BRASIL 44228                    CAMPO GRANRIO DE JANEIRO                     RJ82367179          2307800107981590736   MARIA DA SILVA SANTOS MARCARINI    RUA ANTONIO CREMASCO 40            DOM JOSE DNova Venecia                       ESISENTO            2983000045061474  000000063992007500000001C000000008483                                                            00000000001555        
14038721102013   37860 1610201333068883000201SOCIEDADE COML.IMPORT.HERMES S/A*  AV BRASIL 44228                    CAMPO GRANRIO DE JANEIRO                     RJ82367179          2307800108443835702   LUDMILA FASTINI LOUREIRO           AV BRASIL 442                      CENTRO    Joao Neiva                         ESISENTO            2968000045101560  000000100792006750000001C000000007339                                                            00000000001337        
14038721102013   37861 1610201333068883000201SOCIEDADE COML.IMPORT.HERMES S/A*  AV BRASIL 44228                    CAMPO GRANRIO DE JANEIRO                     RJ82367179          2307800108526249720   JOAO ANEZIO PIMENTEL               RUA RUI BARBOSA 189                CENTRO    Sao Jose do Calcado                ESISENTO            2947000045101564  000000004604000250000001C000000005249                                                            00000000000940        
14038721102013   38155 1710201333068883000201SOCIEDADE COML.IMPORT.HERMES S/A*  AV BRASIL 44228                    CAMPO GRANRIO DE JANEIRO                     RJ82367179          2307800109432806723   LUCAS CALMON PESSANHA              R ERMELINO C SOBRINHO 78 APTO 205  FATIMA    Sao Mateus                         ESISENTO            2993360045152571  000000096791002750000001C000000005478                                                            00000000000984        
14038721102013   38087 1710201333068883000201SOCIEDADE COML.IMPORT.HERMES S/A*  AV BRASIL 44228                    CAMPO GRANRIO DE JANEIRO                     RJ82367179          2307800188654818700   FERNANDO  TINOCO TINOCO            RUA ORLANDO CALIMAN 233 AP303      JARDIM CAMVitoria                            ESISENTO            2909022045117075  000000069990022250000002C000000012817                                                            00000000002264        
14038721102013   38113 1710201333068883000201SOCIEDADE COML.IMPORT.HERMES S/A*  AV BRASIL 44228                    CAMPO GRANRIO DE JANEIRO                     RJ82367179          2307800157867127704   BENEDITO ALVES DE ALMEIDA          R CANGUA 03                        CHACARA DOSao Mateus                         ESISENTO            2993443045135677  000000069150005736000001C000000007261                                                            00000000001323        
14038721102013   38114 1710201333068883000201SOCIEDADE COML.IMPORT.HERMES S/A*  AV BRASIL 44228                    CAMPO GRANRIO DE JANEIRO                     RJ82367179          2307800158967745915   GIOVANI LUIZ TAPPARO               JOSE TOZZI SN                      CENTRO    Sao Mateus                         ESISENTO            2993097045135679  000000017276003750000001C000000005899                                                            00000000001064        
14038721102013   38122 1710201333068883000201SOCIEDADE COML.IMPORT.HERMES S/A*  AV BRASIL 44228                    CAMPO GRANRIO DE JANEIRO                     RJ82367179          2307800113560249716   EVELYN SANTOS SANTANA              RUA GOV JONES DOS SANTOS NEVES 243 CENTRO    Conceicao da Barra                 ESISENTO            2996000045150586  000000025491005600000001C000000007153                                                            00000000001302        
14038721102013   38123 1710201333068883000201SOCIEDADE COML.IMPORT.HERMES S/A*  AV BRASIL 44228                    CAMPO GRANRIO DE JANEIRO                     RJ82367179          2307800181861621787   JOADIR JOSE ALVES                  R JAIME DE BARROS 50               ZUMBI DOS Vila Velha                         ESISENTO            2911879045150590  000000097741002250000001C000000004677                                                            00000000000832        
14038721102013   38143 1710201333068883000201SOCIEDADE COML.IMPORT.HERMES S/A*  AV BRASIL 44228                    CAMPO GRANRIO DE JANEIRO                     RJ82367179          2307800148825530749   PAULO ROBERTO DE AZEVEDO MATTOS    R LICINIO BASTOS 116               BOA VISTA Sao Mateus                         ESISENTO            2993166545151912  000000050991002750000001C000000005364                                                            00000000000962        
14038721102013   38144 1710201333068883000201SOCIEDADE COML.IMPORT.HERMES S/A*  AV BRASIL 44228                    CAMPO GRANRIO DE JANEIRO                     RJ82367179          2307800114782373767   THIAGO GONCALVES                   R RUI BARBOSA 254                  PLANALTO  Vila Velha                         ESISENTO            2911835045151913  000000030309004750000001C000000004758                                                            00000000000847        
14038721102013   38247 1710201333068883000201SOCIEDADE COML.IMPORT.HERMES S/A*  AV BRASIL 44228                    CAMPO GRANRIO DE JANEIRO                     RJ82367179          2307800182677328704   MARIA DE LOURDES CALIARI           R TOCANTINS 1001 PREDIO AMA        SOTECO    Vila Velha                         ESISENTO            2910612045118348  000000004604000250000001C000000004447                                                            00000000000788        
14038721102013   38251 1710201333068883000201SOCIEDADE COML.IMPORT.HERMES S/A*  AV BRASIL 44228                    CAMPO GRANRIO DE JANEIRO                     RJ82367179          2307800157867127704   BENEDITO ALVES DE ALMEIDA          R CANGUA 03                        CHACARA DOSao Mateus                         ESISENTO            2993443045135676  000000039075003750000001C000000005952                                                            00000000001074        
14038721102013   38252 1710201333068883000201SOCIEDADE COML.IMPORT.HERMES S/A*  AV BRASIL 44228                    CAMPO GRANRIO DE JANEIRO                     RJ82367179          2307800158967745915   GIOVANI LUIZ TAPPARO               JOSE TOZZI SN                      CENTRO    Sao Mateus                         ESISENTO            2993097045135678  000000073756010750000001C000000009363                                                            00000000001665        
14038721102013   38253 1710201333068883000201SOCIEDADE COML.IMPORT.HERMES S/A*  AV BRASIL 44228                    CAMPO GRANRIO DE JANEIRO                     RJ82367179          2307800109820807786   MARCOS ANTONIO CLARA DA COSTA      R JACARAIPE 43                     PLANALTO SSerra                              ESISENTO            2917826745135680  000000075036010750000001C000000006141                                                            00000000001053        
14038721102013   38267 1710201333068883000201SOCIEDADE COML.IMPORT.HERMES S/A*  AV BRASIL 44228                    CAMPO GRANRIO DE JANEIRO                     RJ82367179          2307800152695751672   CREMILDA CARIAS DE LANES DIAS      AV SILVIO BARATELLA 13 CASA        PONTA DA FVila Velha                         ESISENTO            2912911045150588  000000109990011250000001C000000006505                                                            00000000001122        
14038721102013   38286 1710201333068883000201SOCIEDADE COML.IMPORT.HERMES S/A*  AV BRASIL 44228                    CAMPO GRANRIO DE JANEIRO                     RJ82367179          2307800113553035757   JOILSON ALVES PEREIRA              RUA NOVA VENECIA 8                 CENTRO    Conceicao da Barra                 ESISENTO            2996000045152570  000000129990025500000001C000000020727                                                            00000000003767        
14038721102013   38120 1710201333068883000201SOCIEDADE COML.IMPORT.HERMES S/A*  AV BRASIL 44228                    CAMPO GRANRIO DE JANEIRO                     RJ82367179          2307800103087572705   EVANETE LUIZ ANTONIO               RUA PASTOR SATURNINO JOSE PEREIRA 1CAMPO GRANCARIACICA                          ESISENTO            2914626045149344  000000029990001250000001C000000004510                                                            00000000000800        
14038721102013   38241 1710201333068883000201SOCIEDADE COML.IMPORT.HERMES S/A*  AV BRASIL 44228                    CAMPO GRANRIO DE JANEIRO                     RJ82367179          2307800103886405613   MARIA DA GLORIA SOUZA SOBRINHO     AV SEBASTIAO RABELO 348 LOJA       CENTRO    Ponto Belo                         ESISENTO            2988500045117074  000000004608000250000001C000000005249                                                            00000000000940        
